{
	"contracts/Teacher.sol": {
		"Teacher": {
			"abi": [
				{
					"inputs": [
						{
							"internalType": "address",
							"name": "_scoreContractAddress",
							"type": "address"
						}
					],
					"stateMutability": "nonpayable",
					"type": "constructor"
				},
				{
					"inputs": [],
					"name": "scoreContract",
					"outputs": [
						{
							"internalType": "contract IScore",
							"name": "",
							"type": "address"
						}
					],
					"stateMutability": "view",
					"type": "function"
				},
				{
					"inputs": [
						{
							"internalType": "address",
							"name": "student",
							"type": "address"
						},
						{
							"internalType": "uint256",
							"name": "newScore",
							"type": "uint256"
						}
					],
					"name": "updateScore",
					"outputs": [],
					"stateMutability": "nonpayable",
					"type": "function"
				}
			],
			"devdoc": {
				"kind": "dev",
				"methods": {},
				"version": 1
			},
			"evm": {
				"assembly": "    /* \"contracts/Teacher.sol\":82:381  contract Teacher {... */\n  mstore(0x40, 0x80)\n    /* \"contracts/Teacher.sol\":142:248  constructor(address _scoreContractAddress){... */\n  callvalue\n  dup1\n  iszero\n  tag_1\n  jumpi\n  0x00\n  dup1\n  revert\ntag_1:\n  pop\n  mload(0x40)\n  sub(codesize, bytecodeSize)\n  dup1\n  bytecodeSize\n  dup4\n  codecopy\n  dup2\n  dup2\n  add\n  0x40\n  mstore\n  dup2\n  add\n  swap1\n  tag_2\n  swap2\n  swap1\n  tag_3\n  jump\t// in\ntag_2:\n    /* \"contracts/Teacher.sol\":218:239  _scoreContractAddress */\n  dup1\n    /* \"contracts/Teacher.sol\":195:208  scoreContract */\n  0x00\n  dup1\n    /* \"contracts/Teacher.sol\":195:240  scoreContract = IScore(_scoreContractAddress) */\n  0x0100\n  exp\n  dup2\n  sload\n  dup2\n  0xffffffffffffffffffffffffffffffffffffffff\n  mul\n  not\n  and\n  swap1\n  dup4\n  0xffffffffffffffffffffffffffffffffffffffff\n  and\n  mul\n  or\n  swap1\n  sstore\n  pop\n    /* \"contracts/Teacher.sol\":142:248  constructor(address _scoreContractAddress){... */\n  pop\n    /* \"contracts/Teacher.sol\":82:381  contract Teacher {... */\n  jump(tag_6)\n    /* \"#utility.yul\":88:205   */\ntag_8:\n    /* \"#utility.yul\":197:198   */\n  0x00\n    /* \"#utility.yul\":194:195   */\n  dup1\n    /* \"#utility.yul\":187:199   */\n  revert\n    /* \"#utility.yul\":334:460   */\ntag_10:\n    /* \"#utility.yul\":371:378   */\n  0x00\n    /* \"#utility.yul\":411:453   */\n  0xffffffffffffffffffffffffffffffffffffffff\n    /* \"#utility.yul\":404:409   */\n  dup3\n    /* \"#utility.yul\":400:454   */\n  and\n    /* \"#utility.yul\":389:454   */\n  swap1\n  pop\n    /* \"#utility.yul\":334:460   */\n  swap2\n  swap1\n  pop\n  jump\t// out\n    /* \"#utility.yul\":466:562   */\ntag_11:\n    /* \"#utility.yul\":503:510   */\n  0x00\n    /* \"#utility.yul\":532:556   */\n  tag_20\n    /* \"#utility.yul\":550:555   */\n  dup3\n    /* \"#utility.yul\":532:556   */\n  tag_10\n  jump\t// in\ntag_20:\n    /* \"#utility.yul\":521:556   */\n  swap1\n  pop\n    /* \"#utility.yul\":466:562   */\n  swap2\n  swap1\n  pop\n  jump\t// out\n    /* \"#utility.yul\":568:690   */\ntag_12:\n    /* \"#utility.yul\":641:665   */\n  tag_22\n    /* \"#utility.yul\":659:664   */\n  dup2\n    /* \"#utility.yul\":641:665   */\n  tag_11\n  jump\t// in\ntag_22:\n    /* \"#utility.yul\":634:639   */\n  dup2\n    /* \"#utility.yul\":631:666   */\n  eq\n    /* \"#utility.yul\":621:684   */\n  tag_23\n  jumpi\n    /* \"#utility.yul\":680:681   */\n  0x00\n    /* \"#utility.yul\":677:678   */\n  dup1\n    /* \"#utility.yul\":670:682   */\n  revert\n    /* \"#utility.yul\":621:684   */\ntag_23:\n    /* \"#utility.yul\":568:690   */\n  pop\n  jump\t// out\n    /* \"#utility.yul\":696:839   */\ntag_13:\n    /* \"#utility.yul\":753:758   */\n  0x00\n    /* \"#utility.yul\":784:790   */\n  dup2\n    /* \"#utility.yul\":778:791   */\n  mload\n    /* \"#utility.yul\":769:791   */\n  swap1\n  pop\n    /* \"#utility.yul\":800:833   */\n  tag_25\n    /* \"#utility.yul\":827:832   */\n  dup2\n    /* \"#utility.yul\":800:833   */\n  tag_12\n  jump\t// in\ntag_25:\n    /* \"#utility.yul\":696:839   */\n  swap3\n  swap2\n  pop\n  pop\n  jump\t// out\n    /* \"#utility.yul\":845:1196   */\ntag_3:\n    /* \"#utility.yul\":915:921   */\n  0x00\n    /* \"#utility.yul\":964:966   */\n  0x20\n    /* \"#utility.yul\":952:961   */\n  dup3\n    /* \"#utility.yul\":943:950   */\n  dup5\n    /* \"#utility.yul\":939:962   */\n  sub\n    /* \"#utility.yul\":935:967   */\n  slt\n    /* \"#utility.yul\":932:1051   */\n  iszero\n  tag_27\n  jumpi\n    /* \"#utility.yul\":970:1049   */\n  tag_28\n  tag_8\n  jump\t// in\ntag_28:\n    /* \"#utility.yul\":932:1051   */\ntag_27:\n    /* \"#utility.yul\":1090:1091   */\n  0x00\n    /* \"#utility.yul\":1115:1179   */\n  tag_29\n    /* \"#utility.yul\":1171:1178   */\n  dup5\n    /* \"#utility.yul\":1162:1168   */\n  dup3\n    /* \"#utility.yul\":1151:1160   */\n  dup6\n    /* \"#utility.yul\":1147:1169   */\n  add\n    /* \"#utility.yul\":1115:1179   */\n  tag_13\n  jump\t// in\ntag_29:\n    /* \"#utility.yul\":1105:1179   */\n  swap2\n  pop\n    /* \"#utility.yul\":1061:1189   */\n  pop\n    /* \"#utility.yul\":845:1196   */\n  swap3\n  swap2\n  pop\n  pop\n  jump\t// out\n    /* \"contracts/Teacher.sol\":82:381  contract Teacher {... */\ntag_6:\n  dataSize(sub_0)\n  dup1\n  dataOffset(sub_0)\n  0x00\n  codecopy\n  0x00\n  return\nstop\n\nsub_0: assembly {\n        /* \"contracts/Teacher.sol\":82:381  contract Teacher {... */\n      mstore(0x40, 0x80)\n      callvalue\n      dup1\n      iszero\n      tag_1\n      jumpi\n      0x00\n      dup1\n      revert\n    tag_1:\n      pop\n      jumpi(tag_2, lt(calldatasize, 0x04))\n      shr(0xe0, calldataload(0x00))\n      dup1\n      0x0d970c3e\n      eq\n      tag_3\n      jumpi\n      dup1\n      0x65d97724\n      eq\n      tag_4\n      jumpi\n    tag_2:\n      0x00\n      dup1\n      revert\n        /* \"contracts/Teacher.sol\":106:133  IScore public scoreContract */\n    tag_3:\n      tag_5\n      tag_6\n      jump\t// in\n    tag_5:\n      mload(0x40)\n      tag_7\n      swap2\n      swap1\n      tag_8\n      jump\t// in\n    tag_7:\n      mload(0x40)\n      dup1\n      swap2\n      sub\n      swap1\n      return\n        /* \"contracts/Teacher.sol\":254:378  function updateScore(address student, uint256 newScore) external {... */\n    tag_4:\n      tag_9\n      0x04\n      dup1\n      calldatasize\n      sub\n      dup2\n      add\n      swap1\n      tag_10\n      swap2\n      swap1\n      tag_11\n      jump\t// in\n    tag_10:\n      tag_12\n      jump\t// in\n    tag_9:\n      stop\n        /* \"contracts/Teacher.sol\":106:133  IScore public scoreContract */\n    tag_6:\n      0x00\n      dup1\n      sload\n      swap1\n      0x0100\n      exp\n      swap1\n      div\n      0xffffffffffffffffffffffffffffffffffffffff\n      and\n      dup2\n      jump\t// out\n        /* \"contracts/Teacher.sol\":254:378  function updateScore(address student, uint256 newScore) external {... */\n    tag_12:\n        /* \"contracts/Teacher.sol\":330:343  scoreContract */\n      0x00\n      dup1\n      sload\n      swap1\n      0x0100\n      exp\n      swap1\n      div\n      0xffffffffffffffffffffffffffffffffffffffff\n      and\n        /* \"contracts/Teacher.sol\":330:352  scoreContract.setScore */\n      0xffffffffffffffffffffffffffffffffffffffff\n      and\n      0xee0fcc75\n        /* \"contracts/Teacher.sol\":353:360  student */\n      dup4\n        /* \"contracts/Teacher.sol\":361:369  newScore */\n      dup4\n        /* \"contracts/Teacher.sol\":330:370  scoreContract.setScore(student,newScore) */\n      mload(0x40)\n      dup4\n      0xffffffff\n      and\n      0xe0\n      shl\n      dup2\n      mstore\n      0x04\n      add\n      tag_14\n      swap3\n      swap2\n      swap1\n      tag_15\n      jump\t// in\n    tag_14:\n      0x00\n      mload(0x40)\n      dup1\n      dup4\n      sub\n      dup2\n      0x00\n      dup8\n      dup1\n      extcodesize\n      iszero\n      dup1\n      iszero\n      tag_16\n      jumpi\n      0x00\n      dup1\n      revert\n    tag_16:\n      pop\n      gas\n      call\n      iszero\n      dup1\n      iszero\n      tag_18\n      jumpi\n      returndatasize\n      0x00\n      dup1\n      returndatacopy\n      revert(0x00, returndatasize)\n    tag_18:\n      pop\n      pop\n      pop\n      pop\n        /* \"contracts/Teacher.sol\":254:378  function updateScore(address student, uint256 newScore) external {... */\n      pop\n      pop\n      jump\t// out\n        /* \"#utility.yul\":7:133   */\n    tag_19:\n        /* \"#utility.yul\":44:51   */\n      0x00\n        /* \"#utility.yul\":84:126   */\n      0xffffffffffffffffffffffffffffffffffffffff\n        /* \"#utility.yul\":77:82   */\n      dup3\n        /* \"#utility.yul\":73:127   */\n      and\n        /* \"#utility.yul\":62:127   */\n      swap1\n      pop\n        /* \"#utility.yul\":7:133   */\n      swap2\n      swap1\n      pop\n      jump\t// out\n        /* \"#utility.yul\":139:199   */\n    tag_20:\n        /* \"#utility.yul\":167:170   */\n      0x00\n        /* \"#utility.yul\":188:193   */\n      dup2\n        /* \"#utility.yul\":181:193   */\n      swap1\n      pop\n        /* \"#utility.yul\":139:199   */\n      swap2\n      swap1\n      pop\n      jump\t// out\n        /* \"#utility.yul\":205:347   */\n    tag_21:\n        /* \"#utility.yul\":255:264   */\n      0x00\n        /* \"#utility.yul\":288:341   */\n      tag_40\n        /* \"#utility.yul\":306:340   */\n      tag_41\n        /* \"#utility.yul\":315:339   */\n      tag_42\n        /* \"#utility.yul\":333:338   */\n      dup5\n        /* \"#utility.yul\":315:339   */\n      tag_19\n      jump\t// in\n    tag_42:\n        /* \"#utility.yul\":306:340   */\n      tag_20\n      jump\t// in\n    tag_41:\n        /* \"#utility.yul\":288:341   */\n      tag_19\n      jump\t// in\n    tag_40:\n        /* \"#utility.yul\":275:341   */\n      swap1\n      pop\n        /* \"#utility.yul\":205:347   */\n      swap2\n      swap1\n      pop\n      jump\t// out\n        /* \"#utility.yul\":353:479   */\n    tag_22:\n        /* \"#utility.yul\":403:412   */\n      0x00\n        /* \"#utility.yul\":436:473   */\n      tag_44\n        /* \"#utility.yul\":467:472   */\n      dup3\n        /* \"#utility.yul\":436:473   */\n      tag_21\n      jump\t// in\n    tag_44:\n        /* \"#utility.yul\":423:473   */\n      swap1\n      pop\n        /* \"#utility.yul\":353:479   */\n      swap2\n      swap1\n      pop\n      jump\t// out\n        /* \"#utility.yul\":485:623   */\n    tag_23:\n        /* \"#utility.yul\":547:556   */\n      0x00\n        /* \"#utility.yul\":580:617   */\n      tag_46\n        /* \"#utility.yul\":611:616   */\n      dup3\n        /* \"#utility.yul\":580:617   */\n      tag_22\n      jump\t// in\n    tag_46:\n        /* \"#utility.yul\":567:617   */\n      swap1\n      pop\n        /* \"#utility.yul\":485:623   */\n      swap2\n      swap1\n      pop\n      jump\t// out\n        /* \"#utility.yul\":629:784   */\n    tag_24:\n        /* \"#utility.yul\":728:777   */\n      tag_48\n        /* \"#utility.yul\":771:776   */\n      dup2\n        /* \"#utility.yul\":728:777   */\n      tag_23\n      jump\t// in\n    tag_48:\n        /* \"#utility.yul\":723:726   */\n      dup3\n        /* \"#utility.yul\":716:778   */\n      mstore\n        /* \"#utility.yul\":629:784   */\n      pop\n      pop\n      jump\t// out\n        /* \"#utility.yul\":790:1036   */\n    tag_8:\n        /* \"#utility.yul\":895:899   */\n      0x00\n        /* \"#utility.yul\":933:935   */\n      0x20\n        /* \"#utility.yul\":922:931   */\n      dup3\n        /* \"#utility.yul\":918:936   */\n      add\n        /* \"#utility.yul\":910:936   */\n      swap1\n      pop\n        /* \"#utility.yul\":946:1029   */\n      tag_50\n        /* \"#utility.yul\":1026:1027   */\n      0x00\n        /* \"#utility.yul\":1015:1024   */\n      dup4\n        /* \"#utility.yul\":1011:1028   */\n      add\n        /* \"#utility.yul\":1002:1008   */\n      dup5\n        /* \"#utility.yul\":946:1029   */\n      tag_24\n      jump\t// in\n    tag_50:\n        /* \"#utility.yul\":790:1036   */\n      swap3\n      swap2\n      pop\n      pop\n      jump\t// out\n        /* \"#utility.yul\":1123:1240   */\n    tag_26:\n        /* \"#utility.yul\":1232:1233   */\n      0x00\n        /* \"#utility.yul\":1229:1230   */\n      dup1\n        /* \"#utility.yul\":1222:1234   */\n      revert\n        /* \"#utility.yul\":1369:1465   */\n    tag_28:\n        /* \"#utility.yul\":1406:1413   */\n      0x00\n        /* \"#utility.yul\":1435:1459   */\n      tag_55\n        /* \"#utility.yul\":1453:1458   */\n      dup3\n        /* \"#utility.yul\":1435:1459   */\n      tag_19\n      jump\t// in\n    tag_55:\n        /* \"#utility.yul\":1424:1459   */\n      swap1\n      pop\n        /* \"#utility.yul\":1369:1465   */\n      swap2\n      swap1\n      pop\n      jump\t// out\n        /* \"#utility.yul\":1471:1593   */\n    tag_29:\n        /* \"#utility.yul\":1544:1568   */\n      tag_57\n        /* \"#utility.yul\":1562:1567   */\n      dup2\n        /* \"#utility.yul\":1544:1568   */\n      tag_28\n      jump\t// in\n    tag_57:\n        /* \"#utility.yul\":1537:1542   */\n      dup2\n        /* \"#utility.yul\":1534:1569   */\n      eq\n        /* \"#utility.yul\":1524:1587   */\n      tag_58\n      jumpi\n        /* \"#utility.yul\":1583:1584   */\n      0x00\n        /* \"#utility.yul\":1580:1581   */\n      dup1\n        /* \"#utility.yul\":1573:1585   */\n      revert\n        /* \"#utility.yul\":1524:1587   */\n    tag_58:\n        /* \"#utility.yul\":1471:1593   */\n      pop\n      jump\t// out\n        /* \"#utility.yul\":1599:1738   */\n    tag_30:\n        /* \"#utility.yul\":1645:1650   */\n      0x00\n        /* \"#utility.yul\":1683:1689   */\n      dup2\n        /* \"#utility.yul\":1670:1690   */\n      calldataload\n        /* \"#utility.yul\":1661:1690   */\n      swap1\n      pop\n        /* \"#utility.yul\":1699:1732   */\n      tag_60\n        /* \"#utility.yul\":1726:1731   */\n      dup2\n        /* \"#utility.yul\":1699:1732   */\n      tag_29\n      jump\t// in\n    tag_60:\n        /* \"#utility.yul\":1599:1738   */\n      swap3\n      swap2\n      pop\n      pop\n      jump\t// out\n        /* \"#utility.yul\":1744:1821   */\n    tag_31:\n        /* \"#utility.yul\":1781:1788   */\n      0x00\n        /* \"#utility.yul\":1810:1815   */\n      dup2\n        /* \"#utility.yul\":1799:1815   */\n      swap1\n      pop\n        /* \"#utility.yul\":1744:1821   */\n      swap2\n      swap1\n      pop\n      jump\t// out\n        /* \"#utility.yul\":1827:1949   */\n    tag_32:\n        /* \"#utility.yul\":1900:1924   */\n      tag_63\n        /* \"#utility.yul\":1918:1923   */\n      dup2\n        /* \"#utility.yul\":1900:1924   */\n      tag_31\n      jump\t// in\n    tag_63:\n        /* \"#utility.yul\":1893:1898   */\n      dup2\n        /* \"#utility.yul\":1890:1925   */\n      eq\n        /* \"#utility.yul\":1880:1943   */\n      tag_64\n      jumpi\n        /* \"#utility.yul\":1939:1940   */\n      0x00\n        /* \"#utility.yul\":1936:1937   */\n      dup1\n        /* \"#utility.yul\":1929:1941   */\n      revert\n        /* \"#utility.yul\":1880:1943   */\n    tag_64:\n        /* \"#utility.yul\":1827:1949   */\n      pop\n      jump\t// out\n        /* \"#utility.yul\":1955:2094   */\n    tag_33:\n        /* \"#utility.yul\":2001:2006   */\n      0x00\n        /* \"#utility.yul\":2039:2045   */\n      dup2\n        /* \"#utility.yul\":2026:2046   */\n      calldataload\n        /* \"#utility.yul\":2017:2046   */\n      swap1\n      pop\n        /* \"#utility.yul\":2055:2088   */\n      tag_66\n        /* \"#utility.yul\":2082:2087   */\n      dup2\n        /* \"#utility.yul\":2055:2088   */\n      tag_32\n      jump\t// in\n    tag_66:\n        /* \"#utility.yul\":1955:2094   */\n      swap3\n      swap2\n      pop\n      pop\n      jump\t// out\n        /* \"#utility.yul\":2100:2574   */\n    tag_11:\n        /* \"#utility.yul\":2168:2174   */\n      0x00\n        /* \"#utility.yul\":2176:2182   */\n      dup1\n        /* \"#utility.yul\":2225:2227   */\n      0x40\n        /* \"#utility.yul\":2213:2222   */\n      dup4\n        /* \"#utility.yul\":2204:2211   */\n      dup6\n        /* \"#utility.yul\":2200:2223   */\n      sub\n        /* \"#utility.yul\":2196:2228   */\n      slt\n        /* \"#utility.yul\":2193:2312   */\n      iszero\n      tag_68\n      jumpi\n        /* \"#utility.yul\":2231:2310   */\n      tag_69\n      tag_26\n      jump\t// in\n    tag_69:\n        /* \"#utility.yul\":2193:2312   */\n    tag_68:\n        /* \"#utility.yul\":2351:2352   */\n      0x00\n        /* \"#utility.yul\":2376:2429   */\n      tag_70\n        /* \"#utility.yul\":2421:2428   */\n      dup6\n        /* \"#utility.yul\":2412:2418   */\n      dup3\n        /* \"#utility.yul\":2401:2410   */\n      dup7\n        /* \"#utility.yul\":2397:2419   */\n      add\n        /* \"#utility.yul\":2376:2429   */\n      tag_30\n      jump\t// in\n    tag_70:\n        /* \"#utility.yul\":2366:2429   */\n      swap3\n      pop\n        /* \"#utility.yul\":2322:2439   */\n      pop\n        /* \"#utility.yul\":2478:2480   */\n      0x20\n        /* \"#utility.yul\":2504:2557   */\n      tag_71\n        /* \"#utility.yul\":2549:2556   */\n      dup6\n        /* \"#utility.yul\":2540:2546   */\n      dup3\n        /* \"#utility.yul\":2529:2538   */\n      dup7\n        /* \"#utility.yul\":2525:2547   */\n      add\n        /* \"#utility.yul\":2504:2557   */\n      tag_33\n      jump\t// in\n    tag_71:\n        /* \"#utility.yul\":2494:2557   */\n      swap2\n      pop\n        /* \"#utility.yul\":2449:2567   */\n      pop\n        /* \"#utility.yul\":2100:2574   */\n      swap3\n      pop\n      swap3\n      swap1\n      pop\n      jump\t// out\n        /* \"#utility.yul\":2580:2698   */\n    tag_34:\n        /* \"#utility.yul\":2667:2691   */\n      tag_73\n        /* \"#utility.yul\":2685:2690   */\n      dup2\n        /* \"#utility.yul\":2667:2691   */\n      tag_28\n      jump\t// in\n    tag_73:\n        /* \"#utility.yul\":2662:2665   */\n      dup3\n        /* \"#utility.yul\":2655:2692   */\n      mstore\n        /* \"#utility.yul\":2580:2698   */\n      pop\n      pop\n      jump\t// out\n        /* \"#utility.yul\":2704:2822   */\n    tag_35:\n        /* \"#utility.yul\":2791:2815   */\n      tag_75\n        /* \"#utility.yul\":2809:2814   */\n      dup2\n        /* \"#utility.yul\":2791:2815   */\n      tag_31\n      jump\t// in\n    tag_75:\n        /* \"#utility.yul\":2786:2789   */\n      dup3\n        /* \"#utility.yul\":2779:2816   */\n      mstore\n        /* \"#utility.yul\":2704:2822   */\n      pop\n      pop\n      jump\t// out\n        /* \"#utility.yul\":2828:3160   */\n    tag_15:\n        /* \"#utility.yul\":2949:2953   */\n      0x00\n        /* \"#utility.yul\":2987:2989   */\n      0x40\n        /* \"#utility.yul\":2976:2985   */\n      dup3\n        /* \"#utility.yul\":2972:2990   */\n      add\n        /* \"#utility.yul\":2964:2990   */\n      swap1\n      pop\n        /* \"#utility.yul\":3000:3071   */\n      tag_77\n        /* \"#utility.yul\":3068:3069   */\n      0x00\n        /* \"#utility.yul\":3057:3066   */\n      dup4\n        /* \"#utility.yul\":3053:3070   */\n      add\n        /* \"#utility.yul\":3044:3050   */\n      dup6\n        /* \"#utility.yul\":3000:3071   */\n      tag_34\n      jump\t// in\n    tag_77:\n        /* \"#utility.yul\":3081:3153   */\n      tag_78\n        /* \"#utility.yul\":3149:3151   */\n      0x20\n        /* \"#utility.yul\":3138:3147   */\n      dup4\n        /* \"#utility.yul\":3134:3152   */\n      add\n        /* \"#utility.yul\":3125:3131   */\n      dup5\n        /* \"#utility.yul\":3081:3153   */\n      tag_35\n      jump\t// in\n    tag_78:\n        /* \"#utility.yul\":2828:3160   */\n      swap4\n      swap3\n      pop\n      pop\n      pop\n      jump\t// out\n\n    auxdata: 0xa26469706673582212209b84b9ccece598a8120a627968fcd76d37730cd03464ced5a441926a4bff86a464736f6c634300081a0033\n}\n",
				"bytecode": {
					"linkReferences": {},
					"object": "608060405234801561000f575f80fd5b506040516103ea3803806103ea833981810160405281019061003191906100d4565b805f806101000a81548173ffffffffffffffffffffffffffffffffffffffff021916908373ffffffffffffffffffffffffffffffffffffffff160217905550506100ff565b5f80fd5b5f73ffffffffffffffffffffffffffffffffffffffff82169050919050565b5f6100a38261007a565b9050919050565b6100b381610099565b81146100bd575f80fd5b50565b5f815190506100ce816100aa565b92915050565b5f602082840312156100e9576100e8610076565b5b5f6100f6848285016100c0565b91505092915050565b6102de8061010c5f395ff3fe608060405234801561000f575f80fd5b5060043610610034575f3560e01c80630d970c3e1461003857806365d9772414610056575b5f80fd5b610040610072565b60405161004d919061019a565b60405180910390f35b610070600480360381019061006b9190610225565b610095565b005b5f8054906101000a900473ffffffffffffffffffffffffffffffffffffffff1681565b5f8054906101000a900473ffffffffffffffffffffffffffffffffffffffff1673ffffffffffffffffffffffffffffffffffffffff1663ee0fcc7583836040518363ffffffff1660e01b81526004016100ef929190610281565b5f604051808303815f87803b158015610106575f80fd5b505af1158015610118573d5f803e3d5ffd5b505050505050565b5f73ffffffffffffffffffffffffffffffffffffffff82169050919050565b5f819050919050565b5f61016261015d61015884610120565b61013f565b610120565b9050919050565b5f61017382610148565b9050919050565b5f61018482610169565b9050919050565b6101948161017a565b82525050565b5f6020820190506101ad5f83018461018b565b92915050565b5f80fd5b5f6101c182610120565b9050919050565b6101d1816101b7565b81146101db575f80fd5b50565b5f813590506101ec816101c8565b92915050565b5f819050919050565b610204816101f2565b811461020e575f80fd5b50565b5f8135905061021f816101fb565b92915050565b5f806040838503121561023b5761023a6101b3565b5b5f610248858286016101de565b925050602061025985828601610211565b9150509250929050565b61026c816101b7565b82525050565b61027b816101f2565b82525050565b5f6040820190506102945f830185610263565b6102a16020830184610272565b939250505056fea26469706673582212209b84b9ccece598a8120a627968fcd76d37730cd03464ced5a441926a4bff86a464736f6c634300081a0033",
					"opcodes": "PUSH1 0x80 PUSH1 0x40 MSTORE CALLVALUE DUP1 ISZERO PUSH2 0xF JUMPI PUSH0 DUP1 REVERT JUMPDEST POP PUSH1 0x40 MLOAD PUSH2 0x3EA CODESIZE SUB DUP1 PUSH2 0x3EA DUP4 CODECOPY DUP2 DUP2 ADD PUSH1 0x40 MSTORE DUP2 ADD SWAP1 PUSH2 0x31 SWAP2 SWAP1 PUSH2 0xD4 JUMP JUMPDEST DUP1 PUSH0 DUP1 PUSH2 0x100 EXP DUP2 SLOAD DUP2 PUSH20 0xFFFFFFFFFFFFFFFFFFFFFFFFFFFFFFFFFFFFFFFF MUL NOT AND SWAP1 DUP4 PUSH20 0xFFFFFFFFFFFFFFFFFFFFFFFFFFFFFFFFFFFFFFFF AND MUL OR SWAP1 SSTORE POP POP PUSH2 0xFF JUMP JUMPDEST PUSH0 DUP1 REVERT JUMPDEST PUSH0 PUSH20 0xFFFFFFFFFFFFFFFFFFFFFFFFFFFFFFFFFFFFFFFF DUP3 AND SWAP1 POP SWAP2 SWAP1 POP JUMP JUMPDEST PUSH0 PUSH2 0xA3 DUP3 PUSH2 0x7A JUMP JUMPDEST SWAP1 POP SWAP2 SWAP1 POP JUMP JUMPDEST PUSH2 0xB3 DUP2 PUSH2 0x99 JUMP JUMPDEST DUP2 EQ PUSH2 0xBD JUMPI PUSH0 DUP1 REVERT JUMPDEST POP JUMP JUMPDEST PUSH0 DUP2 MLOAD SWAP1 POP PUSH2 0xCE DUP2 PUSH2 0xAA JUMP JUMPDEST SWAP3 SWAP2 POP POP JUMP JUMPDEST PUSH0 PUSH1 0x20 DUP3 DUP5 SUB SLT ISZERO PUSH2 0xE9 JUMPI PUSH2 0xE8 PUSH2 0x76 JUMP JUMPDEST JUMPDEST PUSH0 PUSH2 0xF6 DUP5 DUP3 DUP6 ADD PUSH2 0xC0 JUMP JUMPDEST SWAP2 POP POP SWAP3 SWAP2 POP POP JUMP JUMPDEST PUSH2 0x2DE DUP1 PUSH2 0x10C PUSH0 CODECOPY PUSH0 RETURN INVALID PUSH1 0x80 PUSH1 0x40 MSTORE CALLVALUE DUP1 ISZERO PUSH2 0xF JUMPI PUSH0 DUP1 REVERT JUMPDEST POP PUSH1 0x4 CALLDATASIZE LT PUSH2 0x34 JUMPI PUSH0 CALLDATALOAD PUSH1 0xE0 SHR DUP1 PUSH4 0xD970C3E EQ PUSH2 0x38 JUMPI DUP1 PUSH4 0x65D97724 EQ PUSH2 0x56 JUMPI JUMPDEST PUSH0 DUP1 REVERT JUMPDEST PUSH2 0x40 PUSH2 0x72 JUMP JUMPDEST PUSH1 0x40 MLOAD PUSH2 0x4D SWAP2 SWAP1 PUSH2 0x19A JUMP JUMPDEST PUSH1 0x40 MLOAD DUP1 SWAP2 SUB SWAP1 RETURN JUMPDEST PUSH2 0x70 PUSH1 0x4 DUP1 CALLDATASIZE SUB DUP2 ADD SWAP1 PUSH2 0x6B SWAP2 SWAP1 PUSH2 0x225 JUMP JUMPDEST PUSH2 0x95 JUMP JUMPDEST STOP JUMPDEST PUSH0 DUP1 SLOAD SWAP1 PUSH2 0x100 EXP SWAP1 DIV PUSH20 0xFFFFFFFFFFFFFFFFFFFFFFFFFFFFFFFFFFFFFFFF AND DUP2 JUMP JUMPDEST PUSH0 DUP1 SLOAD SWAP1 PUSH2 0x100 EXP SWAP1 DIV PUSH20 0xFFFFFFFFFFFFFFFFFFFFFFFFFFFFFFFFFFFFFFFF AND PUSH20 0xFFFFFFFFFFFFFFFFFFFFFFFFFFFFFFFFFFFFFFFF AND PUSH4 0xEE0FCC75 DUP4 DUP4 PUSH1 0x40 MLOAD DUP4 PUSH4 0xFFFFFFFF AND PUSH1 0xE0 SHL DUP2 MSTORE PUSH1 0x4 ADD PUSH2 0xEF SWAP3 SWAP2 SWAP1 PUSH2 0x281 JUMP JUMPDEST PUSH0 PUSH1 0x40 MLOAD DUP1 DUP4 SUB DUP2 PUSH0 DUP8 DUP1 EXTCODESIZE ISZERO DUP1 ISZERO PUSH2 0x106 JUMPI PUSH0 DUP1 REVERT JUMPDEST POP GAS CALL ISZERO DUP1 ISZERO PUSH2 0x118 JUMPI RETURNDATASIZE PUSH0 DUP1 RETURNDATACOPY RETURNDATASIZE PUSH0 REVERT JUMPDEST POP POP POP POP POP POP JUMP JUMPDEST PUSH0 PUSH20 0xFFFFFFFFFFFFFFFFFFFFFFFFFFFFFFFFFFFFFFFF DUP3 AND SWAP1 POP SWAP2 SWAP1 POP JUMP JUMPDEST PUSH0 DUP2 SWAP1 POP SWAP2 SWAP1 POP JUMP JUMPDEST PUSH0 PUSH2 0x162 PUSH2 0x15D PUSH2 0x158 DUP5 PUSH2 0x120 JUMP JUMPDEST PUSH2 0x13F JUMP JUMPDEST PUSH2 0x120 JUMP JUMPDEST SWAP1 POP SWAP2 SWAP1 POP JUMP JUMPDEST PUSH0 PUSH2 0x173 DUP3 PUSH2 0x148 JUMP JUMPDEST SWAP1 POP SWAP2 SWAP1 POP JUMP JUMPDEST PUSH0 PUSH2 0x184 DUP3 PUSH2 0x169 JUMP JUMPDEST SWAP1 POP SWAP2 SWAP1 POP JUMP JUMPDEST PUSH2 0x194 DUP2 PUSH2 0x17A JUMP JUMPDEST DUP3 MSTORE POP POP JUMP JUMPDEST PUSH0 PUSH1 0x20 DUP3 ADD SWAP1 POP PUSH2 0x1AD PUSH0 DUP4 ADD DUP5 PUSH2 0x18B JUMP JUMPDEST SWAP3 SWAP2 POP POP JUMP JUMPDEST PUSH0 DUP1 REVERT JUMPDEST PUSH0 PUSH2 0x1C1 DUP3 PUSH2 0x120 JUMP JUMPDEST SWAP1 POP SWAP2 SWAP1 POP JUMP JUMPDEST PUSH2 0x1D1 DUP2 PUSH2 0x1B7 JUMP JUMPDEST DUP2 EQ PUSH2 0x1DB JUMPI PUSH0 DUP1 REVERT JUMPDEST POP JUMP JUMPDEST PUSH0 DUP2 CALLDATALOAD SWAP1 POP PUSH2 0x1EC DUP2 PUSH2 0x1C8 JUMP JUMPDEST SWAP3 SWAP2 POP POP JUMP JUMPDEST PUSH0 DUP2 SWAP1 POP SWAP2 SWAP1 POP JUMP JUMPDEST PUSH2 0x204 DUP2 PUSH2 0x1F2 JUMP JUMPDEST DUP2 EQ PUSH2 0x20E JUMPI PUSH0 DUP1 REVERT JUMPDEST POP JUMP JUMPDEST PUSH0 DUP2 CALLDATALOAD SWAP1 POP PUSH2 0x21F DUP2 PUSH2 0x1FB JUMP JUMPDEST SWAP3 SWAP2 POP POP JUMP JUMPDEST PUSH0 DUP1 PUSH1 0x40 DUP4 DUP6 SUB SLT ISZERO PUSH2 0x23B JUMPI PUSH2 0x23A PUSH2 0x1B3 JUMP JUMPDEST JUMPDEST PUSH0 PUSH2 0x248 DUP6 DUP3 DUP7 ADD PUSH2 0x1DE JUMP JUMPDEST SWAP3 POP POP PUSH1 0x20 PUSH2 0x259 DUP6 DUP3 DUP7 ADD PUSH2 0x211 JUMP JUMPDEST SWAP2 POP POP SWAP3 POP SWAP3 SWAP1 POP JUMP JUMPDEST PUSH2 0x26C DUP2 PUSH2 0x1B7 JUMP JUMPDEST DUP3 MSTORE POP POP JUMP JUMPDEST PUSH2 0x27B DUP2 PUSH2 0x1F2 JUMP JUMPDEST DUP3 MSTORE POP POP JUMP JUMPDEST PUSH0 PUSH1 0x40 DUP3 ADD SWAP1 POP PUSH2 0x294 PUSH0 DUP4 ADD DUP6 PUSH2 0x263 JUMP JUMPDEST PUSH2 0x2A1 PUSH1 0x20 DUP4 ADD DUP5 PUSH2 0x272 JUMP JUMPDEST SWAP4 SWAP3 POP POP POP JUMP INVALID LOG2 PUSH5 0x6970667358 0x22 SLT KECCAK256 SWAP12 DUP5 0xB9 0xCC 0xEC 0xE5 SWAP9 0xA8 SLT EXP PUSH3 0x7968FC 0xD7 PUSH14 0x37730CD03464CED5A441926A4BFF DUP7 LOG4 PUSH5 0x736F6C6343 STOP ADDMOD BYTE STOP CALLER "
				},
				"gasEstimates": {
					"creation": {
						"codeDepositCost": "146800",
						"executionCost": "infinite",
						"totalCost": "infinite"
					},
					"external": {
						"scoreContract()": "infinite",
						"updateScore(address,uint256)": "infinite"
					}
				},
				"methodIdentifiers": {
					"scoreContract()": "0d970c3e",
					"updateScore(address,uint256)": "65d97724"
				}
			},
			"storageLayout": {
				"storage": [
					{
						"astId": 15,
						"contract": "contracts/Teacher.sol:Teacher",
						"label": "scoreContract",
						"offset": 0,
						"slot": "0",
						"type": "t_contract(IScore)9"
					}
				],
				"types": {
					"t_contract(IScore)9": {
						"encoding": "inplace",
						"label": "contract IScore",
						"numberOfBytes": "20"
					}
				}
			},
			"userdoc": {
				"kind": "user",
				"methods": {},
				"version": 1
			}
		}
	}
}